S01000004C6564426C696E6B2E737265630F
S11300000C9434000C943E000C943E000C943E007E
S11300100C943E000C943E000C943E000C943E0064
S11300200C943E000C943E000C943E000C943E0054
S11300300C943E000C943E000C943E000C943E0044
S11300400C943E000C943E000C943E000C943E0034
S11300500C943E000C943E000C943E000C943E0024
S11300600C943E000C943E0011241FBECFEFD8E048
S1130070DEBFCDBF0E9440000C945C000C940000D5
S113008084B1816084B985B1806285B92FE38DE044
S113009093E0215080409040E1F700C0000085B11A
S11300A08F7D85B92FE38DE093E02150804090400F
S10F00B0E1F700C00000E7CFF894FFCF98
S9030000FC
